{"abi":[{"type":"constructor","inputs":[],"stateMutability":"nonpayable"},{"type":"function","name":"DEFAULT_ADMIN_ROLE","inputs":[],"outputs":[{"name":"","type":"bytes32","internalType":"bytes32"}],"stateMutability":"view"},{"type":"function","name":"DEVICE_ROLE","inputs":[],"outputs":[{"name":"","type":"bytes32","internalType":"bytes32"}],"stateMutability":"view"},{"type":"function","name":"FARMER_ROLE","inputs":[],"outputs":[{"name":"","type":"bytes32","internalType":"bytes32"}],"stateMutability":"view"},{"type":"function","name":"MAX_BATCH_SIZE","inputs":[],"outputs":[{"name":"","type":"uint256","internalType":"uint256"}],"stateMutability":"view"},{"type":"function","name":"RESEARCHER_ROLE","inputs":[],"outputs":[{"name":"","type":"bytes32","internalType":"bytes32"}],"stateMutability":"view"},{"type":"function","name":"SUBMISSION_COOLDOWN","inputs":[],"outputs":[{"name":"","type":"uint256","internalType":"uint256"}],"stateMutability":"view"},{"type":"function","name":"SUPPLY_CHAIN_ROLE","inputs":[],"outputs":[{"name":"","type":"bytes32","internalType":"bytes32"}],"stateMutability":"view"},{"type":"function","name":"cropEvents","inputs":[{"name":"","type":"uint256","internalType":"uint256"}],"outputs":[{"name":"farmId","type":"uint256","internalType":"uint256"},{"name":"eventType","type":"string","internalType":"string"},{"name":"timestamp","type":"uint256","internalType":"uint256"},{"name":"notes","type":"string","internalType":"string"},{"name":"linkedDataHash","type":"bytes32","internalType":"bytes32"}],"stateMutability":"view"},{"type":"function","name":"dataHashes","inputs":[{"name":"","type":"bytes32","internalType":"bytes32"}],"outputs":[{"name":"","type":"bool","internalType":"bool"}],"stateMutability":"view"},{"type":"function","name":"farmToCropEvents","inputs":[{"name":"","type":"uint256","internalType":"uint256"},{"name":"","type":"uint256","internalType":"uint256"}],"outputs":[{"name":"","type":"uint256","internalType":"uint256"}],"stateMutability":"view"},{"type":"function","name":"farmToReadings","inputs":[{"name":"","type":"uint256","internalType":"uint256"},{"name":"","type":"uint256","internalType":"uint256"}],"outputs":[{"name":"","type":"uint256","internalType":"uint256"}],"stateMutability":"view"},{"type":"function","name":"getCropEventsByFarm","inputs":[{"name":"farmId","type":"uint256","internalType":"uint256"}],"outputs":[{"name":"","type":"uint256[]","internalType":"uint256[]"}],"stateMutability":"view"},{"type":"function","name":"getReadingsByFarm","inputs":[{"name":"farmId","type":"uint256","internalType":"uint256"}],"outputs":[{"name":"","type":"uint256[]","internalType":"uint256[]"}],"stateMutability":"view"},{"type":"function","name":"getRoleAdmin","inputs":[{"name":"role","type":"bytes32","internalType":"bytes32"}],"outputs":[{"name":"","type":"bytes32","internalType":"bytes32"}],"stateMutability":"view"},{"type":"function","name":"getSupplyChainStages","inputs":[{"name":"productId","type":"uint256","internalType":"uint256"}],"outputs":[{"name":"","type":"uint256[]","internalType":"uint256[]"}],"stateMutability":"view"},{"type":"function","name":"getTotalCropEvents","inputs":[],"outputs":[{"name":"","type":"uint256","internalType":"uint256"}],"stateMutability":"view"},{"type":"function","name":"getTotalReadings","inputs":[],"outputs":[{"name":"","type":"uint256","internalType":"uint256"}],"stateMutability":"view"},{"type":"function","name":"getTotalSupplyChainStages","inputs":[],"outputs":[{"name":"","type":"uint256","internalType":"uint256"}],"stateMutability":"view"},{"type":"function","name":"grantRole","inputs":[{"name":"role","type":"bytes32","internalType":"bytes32"},{"name":"account","type":"address","internalType":"address"}],"outputs":[],"stateMutability":"nonpayable"},{"type":"function","name":"hasRole","inputs":[{"name":"role","type":"bytes32","internalType":"bytes32"},{"name":"account","type":"address","internalType":"address"}],"outputs":[{"name":"","type":"bool","internalType":"bool"}],"stateMutability":"view"},{"type":"function","name":"lastSubmissionTime","inputs":[{"name":"","type":"address","internalType":"address"}],"outputs":[{"name":"","type":"uint256","internalType":"uint256"}],"stateMutability":"view"},{"type":"function","name":"pause","inputs":[],"outputs":[],"stateMutability":"nonpayable"},{"type":"function","name":"paused","inputs":[],"outputs":[{"name":"","type":"bool","internalType":"bool"}],"stateMutability":"view"},{"type":"function","name":"productToStages","inputs":[{"name":"","type":"uint256","internalType":"uint256"},{"name":"","type":"uint256","internalType":"uint256"}],"outputs":[{"name":"","type":"uint256","internalType":"uint256"}],"stateMutability":"view"},{"type":"function","name":"readings","inputs":[{"name":"","type":"uint256","internalType":"uint256"}],"outputs":[{"name":"timestamp","type":"uint256","internalType":"uint256"},{"name":"deviceId","type":"address","internalType":"address"},{"name":"farmId","type":"uint256","internalType":"uint256"},{"name":"temperature","type":"int16","internalType":"int16"},{"name":"soilMoisture","type":"uint16","internalType":"uint16"},{"name":"humidity","type":"uint16","internalType":"uint16"},{"name":"dataHash","type":"bytes32","internalType":"bytes32"}],"stateMutability":"view"},{"type":"function","name":"recordCropEvent","inputs":[{"name":"farmId","type":"uint256","internalType":"uint256"},{"name":"eventType","type":"string","internalType":"string"},{"name":"notes","type":"string","internalType":"string"},{"name":"linkedDataHash","type":"bytes32","internalType":"bytes32"}],"outputs":[],"stateMutability":"nonpayable"},{"type":"function","name":"recordSupplyChainStage","inputs":[{"name":"productId","type":"uint256","internalType":"uint256"},{"name":"stage","type":"string","internalType":"string"},{"name":"location","type":"string","internalType":"string"},{"name":"linkedDataHash","type":"bytes32","internalType":"bytes32"}],"outputs":[],"stateMutability":"nonpayable"},{"type":"function","name":"renounceRole","inputs":[{"name":"role","type":"bytes32","internalType":"bytes32"},{"name":"callerConfirmation","type":"address","internalType":"address"}],"outputs":[],"stateMutability":"nonpayable"},{"type":"function","name":"revokeRole","inputs":[{"name":"role","type":"bytes32","internalType":"bytes32"},{"name":"account","type":"address","internalType":"address"}],"outputs":[],"stateMutability":"nonpayable"},{"type":"function","name":"submitBatch","inputs":[{"name":"farmIds","type":"uint256[]","internalType":"uint256[]"},{"name":"temperatures","type":"int16[]","internalType":"int16[]"},{"name":"moistures","type":"uint16[]","internalType":"uint16[]"},{"name":"humidities","type":"uint16[]","internalType":"uint16[]"}],"outputs":[],"stateMutability":"nonpayable"},{"type":"function","name":"submitSensorData","inputs":[{"name":"farmId","type":"uint256","internalType":"uint256"},{"name":"temperature","type":"int16","internalType":"int16"},{"name":"soilMoisture","type":"uint16","internalType":"uint16"},{"name":"humidity","type":"uint16","internalType":"uint16"}],"outputs":[],"stateMutability":"nonpayable"},{"type":"function","name":"supplyChainStages","inputs":[{"name":"","type":"uint256","internalType":"uint256"}],"outputs":[{"name":"productId","type":"uint256","internalType":"uint256"},{"name":"stage","type":"string","internalType":"string"},{"name":"timestamp","type":"uint256","internalType":"uint256"},{"name":"recorder","type":"address","internalType":"address"},{"name":"location","type":"string","internalType":"string"},{"name":"linkedDataHash","type":"bytes32","internalType":"bytes32"}],"stateMutability":"view"},{"type":"function","name":"supportsInterface","inputs":[{"name":"interfaceId","type":"bytes4","internalType":"bytes4"}],"outputs":[{"name":"","type":"bool","internalType":"bool"}],"stateMutability":"view"},{"type":"function","name":"unpause","inputs":[],"outputs":[],"stateMutability":"nonpayable"},{"type":"function","name":"verifyReading","inputs":[{"name":"readingId","type":"uint256","internalType":"uint256"}],"outputs":[{"name":"valid","type":"bool","internalType":"bool"},{"name":"storedHash","type":"bytes32","internalType":"bytes32"}],"stateMutability":"view"},{"type":"event","name":"AnomalyDetected","inputs":[{"name":"readingId","type":"uint256","indexed":true,"internalType":"uint256"},{"name":"deviceId","type":"address","indexed":true,"internalType":"address"},{"name":"anomalyType","type":"string","indexed":false,"internalType":"string"}],"anonymous":false},{"type":"event","name":"CropEventRecorded","inputs":[{"name":"eventId","type":"uint256","indexed":true,"internalType":"uint256"},{"name":"farmId","type":"uint256","indexed":true,"internalType":"uint256"},{"name":"eventType","type":"string","indexed":false,"internalType":"string"},{"name":"timestamp","type":"uint256","indexed":false,"internalType":"uint256"}],"anonymous":false},{"type":"event","name":"Paused","inputs":[{"name":"account","type":"address","indexed":false,"internalType":"address"}],"anonymous":false},{"type":"event","name":"RoleAdminChanged","inputs":[{"name":"role","type":"bytes32","indexed":true,"internalType":"bytes32"},{"name":"previousAdminRole","type":"bytes32","indexed":true,"internalType":"bytes32"},{"name":"newAdminRole","type":"bytes32","indexed":true,"internalType":"bytes32"}],"anonymous":false},{"type":"event","name":"RoleGranted","inputs":[{"name":"role","type":"bytes32","indexed":true,"internalType":"bytes32"},{"name":"account","type":"address","indexed":true,"internalType":"address"},{"name":"sender","type":"address","indexed":true,"internalType":"address"}],"anonymous":false},{"type":"event","name":"RoleRevoked","inputs":[{"name":"role","type":"bytes32","indexed":true,"internalType":"bytes32"},{"name":"account","type":"address","indexed":true,"internalType":"address"},{"name":"sender","type":"address","indexed":true,"internalType":"address"}],"anonymous":false},{"type":"event","name":"SensorDataSubmitted","inputs":[{"name":"readingId","type":"uint256","indexed":true,"internalType":"uint256"},{"name":"deviceId","type":"address","indexed":true,"internalType":"address"},{"name":"farmId","type":"uint256","indexed":true,"internalType":"uint256"},{"name":"timestamp","type":"uint256","indexed":false,"internalType":"uint256"}],"anonymous":false},{"type":"event","name":"SupplyChainStageRecorded","inputs":[{"name":"stageId","type":"uint256","indexed":true,"internalType":"uint256"},{"name":"productId","type":"uint256","indexed":true,"internalType":"uint256"},{"name":"stage","type":"string","indexed":false,"internalType":"string"},{"name":"timestamp","type":"uint256","indexed":false,"internalType":"uint256"}],"anonymous":false},{"type":"event","name":"Unpaused","inputs":[{"name":"account","type":"address","indexed":false,"internalType":"address"}],"anonymous":false},{"type":"error","name":"AccessControlBadConfirmation","inputs":[]},{"type":"error","name":"AccessControlUnauthorizedAccount","inputs":[{"name":"account","type":"address","internalType":"address"},{"name":"neededRole","type":"bytes32","internalType":"bytes32"}]},{"type":"error","name":"ArrayLengthMismatch","inputs":[]},{"type":"error","name":"DuplicateDataHash","inputs":[]},{"type":"error","name":"EnforcedPause","inputs":[]},{"type":"error","name":"ExpectedPause","inputs":[]},{"type":"error","name":"InvalidSensorData","inputs":[]},{"type":"error","name":"ReadingNotFound","inputs":[]},{"type":"error","name":"UnauthorizedDevice","inputs":[]}],"bytecode":{"object":"0x608060405234801562000010575f80fd5b506200001d5f33620000d8565b506200004a7f48404ec5122cfef2c4b0b727fa211cfb1e815e1b19d5c56f7d3cc0c616120a2833620000d8565b50620000777f7c6181838a71a779e445600d4c6ecbe16bacf2b3c5bda69c29fada66d1b645d133620000d8565b50620000a47f7765bfe615aab9fb9a16bd4c5c9b353f39dae79ca7da86094b0a74ea8a89e59a33620000d8565b50620000d17f9fdd832c63a06cff8edefff7231d8026fd177377608db1841f7c881716ea19bc33620000d8565b5062000184565b5f828152602081815260408083206001600160a01b038516845290915281205460ff166200017b575f838152602081815260408083206001600160a01b03861684529091529020805460ff19166001179055620001323390565b6001600160a01b0316826001600160a01b0316847f2f8788117e7eff1d82e926ec794901d17c78024a50270940304540a733656f0d60405160405180910390a45060016200017e565b505f5b92915050565b61220580620001925f395ff3fe608060405234801561000f575f80fd5b5060043610610208575f3560e01c806388c360351161011f578063b0e26d70116100a9578063f2410ef711610079578063f2410ef7146104d8578063f24cb034146104fd578063f394397014610524578063faf1fba61461054b578063fda7503b1461055e575f80fd5b8063b0e26d701461043c578063cfdbf25414610463578063d547741f1461046b578063d5da886d1461047e575f80fd5b8063a0ec242a116100ef578063a0ec242a146103d1578063a217fddf146103d9578063a4365476146103e0578063a9bf7419146103ff578063aaf1075214610412575f80fd5b806388c36035146103815780638e07dd94146103945780638ea768fe1461039c57806391d14854146103be575f80fd5b806350f2aab3116101a05780636ed71357116101705780636ed713571461034357806372067fe91461034b578063776cce901461035e5780638456cb5914610366578063864b64851461036e575f80fd5b806350f2aab3146102de57806356c70ed61461030557806358cfe812146103185780635c975abb14610338575f80fd5b80632f2ff15d116101db5780632f2ff15d1461028c57806336568abe1461029f5780633f4ba83a146102b25780634688f7db146102ba575f80fd5b806301ffc9a71461020c5780630d8d976c146102345780630faa74e514610249578063248a9ca31461025c575b5f80fd5b61021f61021a366004611bd5565b610571565b60405190151581526020015b60405180910390f35b610247610242366004611c4b565b6105a7565b005b610247610257366004611d44565b610b6c565b61027e61026a366004611dc0565b5f9081526020819052604090206001015490565b60405190815260200161022b565b61024761029a366004611df2565b610d02565b6102476102ad366004611df2565b610d2c565b610247610d64565b6102cd6102c8366004611dc0565b610d79565b60405161022b959493929190611e5f565b61027e7f7765bfe615aab9fb9a16bd4c5c9b353f39dae79ca7da86094b0a74ea8a89e59a81565b61027e610313366004611ea2565b610ec5565b61032b610326366004611dc0565b610ef0565b60405161022b9190611ec2565b60015460ff1661021f565b60025461027e565b61032b610359366004611dc0565b610f4f565b60045461027e565b610247610fac565b61024761037c366004611f27565b610fbe565b61024761038f366004611d44565b61131f565b60035461027e565b61021f6103aa366004611dc0565b60056020525f908152604090205460ff1681565b61021f6103cc366004611df2565b6114d5565b61027e603c81565b61027e5f81565b61027e6103ee366004611f71565b60096020525f908152604090205481565b61032b61040d366004611dc0565b6114fd565b610425610420366004611dc0565b61155a565b60408051921515835260208301919091520161022b565b61027e7f48404ec5122cfef2c4b0b727fa211cfb1e815e1b19d5c56f7d3cc0c616120a2881565b61027e606481565b610247610479366004611df2565b61161f565b61049161048c366004611dc0565b611643565b604080519788526001600160a01b0390961660208801529486019390935260019190910b606085015261ffff90811660808501521660a083015260c082015260e00161022b565b6104eb6104e6366004611dc0565b6116a8565b60405161022b96959493929190611f8a565b61027e7f9fdd832c63a06cff8edefff7231d8026fd177377608db1841f7c881716ea19bc81565b61027e7f7c6181838a71a779e445600d4c6ecbe16bacf2b3c5bda69c29fada66d1b645d181565b61027e610559366004611ea2565b611808565b61027e61056c366004611ea2565b611821565b5f6001600160e01b03198216637965db0b60e01b14806105a157506301ffc9a760e01b6001600160e01b03198316145b92915050565b7f48404ec5122cfef2c4b0b727fa211cfb1e815e1b19d5c56f7d3cc0c616120a286105d18161183a565b6105d9611844565b8760648111156106305760405162461bcd60e51b815260206004820152601a60248201527f42617463682073697a652065786365656473206d6178696d756d00000000000060448201526064015b60405180910390fd5b808714158061063f5750808514155b8061064a5750808314155b156106685760405163512509d360e11b815260040160405180910390fd5b335f9081526009602052604090205461068390603c90611fde565b4210156106cb5760405162461bcd60e51b8152602060048201526016602482015275436f6f6c646f776e20706572696f642061637469766560501b6044820152606401610627565b335f9081526009602052604081204290555b81811015610b5f576103e88787838181106106fa576106fa611ffd565b905060200201602081019061070f9190612011565b61ffff16118061074a57506103e885858381811061072f5761072f611ffd565b90506020020160208101906107449190612011565b61ffff16115b156107685760405163043e24f760e51b815260040160405180910390fd5b5f42338d8d8581811061077d5761077d611ffd565b905060200201358c8c8681811061079657610796611ffd565b90506020020160208101906107ab919061202a565b8b8b878181106107bd576107bd611ffd565b90506020020160208101906107d29190612011565b8a8a888181106107e4576107e4611ffd565b90506020020160208101906107f99190612011565b87604051602001610861979695949392919096875260609590951b6bffffffffffffffffffffffff19166020870152603486019390935260f091821b6054860152811b6001600160f01b0319908116605686015291901b166058830152605a820152607a0190565b60408051601f1981840301815291815281516020928301205f818152600590935291205490915060ff16156108a957604051632ca15f0960e01b815260040160405180910390fd5b5f81815260056020908152604091829020805460ff1916600117905560028054835160e08101855242815233938101939093529290919081018f8f878181106108f4576108f4611ffd565b9050602002013581526020018d8d8781811061091257610912611ffd565b9050602002016020810190610927919061202a565b60010b81526020018b8b8781811061094157610941611ffd565b90506020020160208101906109569190612011565b61ffff16815260200189898781811061097157610971611ffd565b90506020020160208101906109869190612011565b61ffff908116825260209182018690528354600181810186555f95865283862085516005909302019182559284015192810180546001600160a01b039094166001600160a01b031990941693909317909255604083015160028301556060830151600383018054608086015160a087015185166401000000000265ffff0000000019918616620100000263ffffffff199093169490951693909317179190911691909117905560c0909101516004909101556006908e8e86818110610a4d57610a4d611ffd565b60209081029290920135835250818101929092526040015f9081208054600181018255908252919020018190558c8c84818110610a8c57610a8c611ffd565b90506020020135336001600160a01b0316827fd1ffbc628ab31d410540a5216a77617b6437dd8315e6d6eb848dc25b4825e40042604051610acf91815260200190565b60405180910390a4610b55818c8c86818110610aed57610aed611ffd565b9050602002016020810190610b02919061202a565b8b8b87818110610b1457610b14611ffd565b9050602002016020810190610b299190612011565b8a8a88818110610b3b57610b3b611ffd565b9050602002016020810190610b509190612011565b61186a565b50506001016106dd565b5050505050505050505050565b7f7c6181838a71a779e445600d4c6ecbe16bacf2b3c5bda69c29fada66d1b645d1610b968161183a565b610b9e611844565b5f600380549050905060036040518060a001604052808a815260200189898080601f0160208091040260200160405190810160405280939291908181526020018383808284375f920191909152505050908252504260208083019190915260408051601f8a0183900483028101830182528981529201919089908990819084018382808284375f9201829052509385525050506020918201879052835460018181018655948252908290208351600590920201908155908201519192909190820190610c6a90826120dc565b506040820151600282015560608201516003820190610c8990826120dc565b50608091909101516004909101555f8881526007602090815260408083208054600181018255908452919092200182905551889082907fb414845a4cb1995a4700e6ebfd4967cd28d1ab8c31461aa6da72fefc4cd720a690610cf0908b908b904290612198565b60405180910390a35050505050505050565b5f82815260208190526040902060010154610d1c8161183a565b610d2683836119f0565b50505050565b6001600160a01b0381163314610d555760405163334bd91960e11b815260040160405180910390fd5b610d5f8282611a7f565b505050565b5f610d6e8161183a565b610d76611ae8565b50565b60038181548110610d88575f80fd5b5f9182526020909120600590910201805460018201805491935090610dac90612057565b80601f0160208091040260200160405190810160405280929190818152602001828054610dd890612057565b8015610e235780601f10610dfa57610100808354040283529160200191610e23565b820191905f5260205f20905b815481529060010190602001808311610e0657829003601f168201915b505050505090806002015490806003018054610e3e90612057565b80601f0160208091040260200160405190810160405280929190818152602001828054610e6a90612057565b8015610eb55780601f10610e8c57610100808354040283529160200191610eb5565b820191905f5260205f20905b815481529060010190602001808311610e9857829003601f168201915b5050505050908060040154905085565b6008602052815f5260405f208181548110610ede575f80fd5b905f5260205f20015f91509150505481565b5f81815260066020908152604091829020805483518184028101840190945280845260609392830182828015610f4357602002820191905f5260205f20905b815481526020019060010190808311610f2f575b50505050509050919050565b5f81815260086020908152604091829020805483518184028101840190945280845260609392830182828015610f4357602002820191905f5260205f2090815481526020019060010190808311610f2f5750505050509050919050565b5f610fb68161183a565b610d76611b3a565b7f48404ec5122cfef2c4b0b727fa211cfb1e815e1b19d5c56f7d3cc0c616120a28610fe88161183a565b610ff0611844565b335f9081526009602052604090205461100b90603c90611fde565b4210156110535760405162461bcd60e51b8152602060048201526016602482015275436f6f6c646f776e20706572696f642061637469766560501b6044820152606401610627565b335f9081526009602052604090204290556103e861ffff8416118061107d57506103e88261ffff16115b1561109b5760405163043e24f760e51b815260040160405180910390fd5b604080514260208201526bffffffffffffffffffffffff193360601b16918101919091526054810186905260f085811b60748301526001600160f01b031985821b811660768401529084901b1660788201525f90607a0160408051601f1981840301815291815281516020928301205f818152600590935291205490915060ff161561113a57604051632ca15f0960e01b815260040160405180910390fd5b600160055f8381526020019081526020015f205f6101000a81548160ff0219169083151502179055505f600280549050905060026040518060e00160405280428152602001336001600160a01b031681526020018981526020018860010b81526020018761ffff1681526020018661ffff16815260200184815250908060018154018082558091505060019003905f5260205f2090600502015f909190919091505f820151815f01556020820151816001015f6101000a8154816001600160a01b0302191690836001600160a01b03160217905550604082015181600201556060820151816003015f6101000a81548161ffff021916908360010b61ffff16021790555060808201518160030160026101000a81548161ffff021916908361ffff16021790555060a08201518160030160046101000a81548161ffff021916908361ffff16021790555060c08201518160040155505060065f8881526020019081526020015f2081908060018154018082558091505060019003905f5260205f20015f909190919091505586336001600160a01b0316827fd1ffbc628ab31d410540a5216a77617b6437dd8315e6d6eb848dc25b4825e4004260405161130291815260200190565b60405180910390a46113168187878761186a565b50505050505050565b7f9fdd832c63a06cff8edefff7231d8026fd177377608db1841f7c881716ea19bc6113498161183a565b611351611844565b5f600480549050905060046040518060c001604052808a815260200189898080601f0160208091040260200160405190810160405280939291908181526020018383808284375f9201919091525050509082525042602080830191909152336040808401919091528051601f8a018390048302810183019091528881526060909201919089908990819084018382808284375f920182905250938552505050602091820187905283546001818101865594825290829020835160069092020190815590820151919290919082019061142990826120dc565b506040820151600282015560608201516003820180546001600160a01b0319166001600160a01b039092169190911790556080820151600482019061146e90826120dc565b5060a091909101516005909101555f8881526008602090815260408083208054600181018255908452919092200182905551889082907f458336fd7c5948d16ae76ce225c87f858bd744b40d82ddc8272ed4eadeca651590610cf0908b908b904290612198565b5f918252602082815260408084206001600160a01b0393909316845291905290205460ff1690565b5f81815260076020908152604091829020805483518184028101840190945280845260609392830182828015610f4357602002820191905f5260205f2090815481526020019060010190808311610f2f5750505050509050919050565b6002545f90819083106115805760405163447875bf60e11b815260040160405180910390fd5b5f6002848154811061159457611594611ffd565b5f91825260208083206040805160e0810182526005948502909201805483526001808201546001600160a01b03168486015260028201548484015260038201549081900b606085015261ffff620100008204811660808601526401000000009091041660a08401526004015460c09092018290528185529290915291205460ff169590945092505050565b5f828152602081905260409020600101546116398161183a565b610d268383611a7f565b60028181548110611652575f80fd5b5f91825260209091206005909102018054600180830154600284015460038501546004909501549395506001600160a01b039091169390929181900b9161ffff6201000083048116926401000000009004169087565b600481815481106116b7575f80fd5b5f91825260209091206006909102018054600182018054919350906116db90612057565b80601f016020809104026020016040519081016040528092919081815260200182805461170790612057565b80156117525780601f1061172957610100808354040283529160200191611752565b820191905f5260205f20905b81548152906001019060200180831161173557829003601f168201915b5050505060028301546003840154600485018054949592946001600160a01b0390921693509061178190612057565b80601f01602080910402602001604051908101604052809291908181526020018280546117ad90612057565b80156117f85780601f106117cf576101008083540402835291602001916117f8565b820191905f5260205f20905b8154815290600101906020018083116117db57829003601f168201915b5050505050908060050154905086565b6006602052815f5260405f208181548110610ede575f80fd5b6007602052815f5260405f208181548110610ede575f80fd5b610d768133611b75565b60015460ff16156118685760405163d93c066560e01b815260040160405180910390fd5b565b6063198360010b128061188157506102588360010b135b156118ef57336001600160a01b0316847f95e8be25ce99d5e12cac2015ee3df3941fe93667bc5bb68c81b82a3f7ee9ed746040516118e69060208082526013908201527245585452454d455f54454d504552415455524560681b604082015260600190565b60405180910390a35b60328261ffff16108061190757506103b68261ffff16115b1561197757336001600160a01b0316847f95e8be25ce99d5e12cac2015ee3df3941fe93667bc5bb68c81b82a3f7ee9ed7460405161196e9060208082526015908201527445585452454d455f534f494c5f4d4f49535455524560581b604082015260600190565b60405180910390a35b6103b68161ffff161115610d2657336001600160a01b0316847f95e8be25ce99d5e12cac2015ee3df3941fe93667bc5bb68c81b82a3f7ee9ed746040516119e29060208082526010908201526f45585452454d455f48554d494449545960801b604082015260600190565b60405180910390a350505050565b5f6119fb83836114d5565b611a78575f838152602081815260408083206001600160a01b03861684529091529020805460ff19166001179055611a303390565b6001600160a01b0316826001600160a01b0316847f2f8788117e7eff1d82e926ec794901d17c78024a50270940304540a733656f0d60405160405180910390a45060016105a1565b505f6105a1565b5f611a8a83836114d5565b15611a78575f838152602081815260408083206001600160a01b0386168085529252808320805460ff1916905551339286917ff6391f5c32d9c69d2a47ea670b442974b53935d1edc7fd64eb21e047a839171b9190a45060016105a1565b611af0611bb2565b6001805460ff191690557f5db9ee0a495bf2e6ff9c91a7834c1ba4fdd244a5e8aa4e537bd38aeae4b073aa335b6040516001600160a01b03909116815260200160405180910390a1565b611b42611844565b6001805460ff1916811790557f62e78cea01bee320cd4e420270b5ea74000d11b0c9f74754ebdbfc544b05a25833611b1d565b611b7f82826114d5565b611bae5760405163e2517d3f60e01b81526001600160a01b038216600482015260248101839052604401610627565b5050565b60015460ff1661186857604051638dfc202b60e01b815260040160405180910390fd5b5f60208284031215611be5575f80fd5b81356001600160e01b031981168114611bfc575f80fd5b9392505050565b5f8083601f840112611c13575f80fd5b50813567ffffffffffffffff811115611c2a575f80fd5b6020830191508360208260051b8501011115611c44575f80fd5b9250929050565b5f805f805f805f806080898b031215611c62575f80fd5b883567ffffffffffffffff80821115611c79575f80fd5b611c858c838d01611c03565b909a50985060208b0135915080821115611c9d575f80fd5b611ca98c838d01611c03565b909850965060408b0135915080821115611cc1575f80fd5b611ccd8c838d01611c03565b909650945060608b0135915080821115611ce5575f80fd5b50611cf28b828c01611c03565b999c989b5096995094979396929594505050565b5f8083601f840112611d16575f80fd5b50813567ffffffffffffffff811115611d2d575f80fd5b602083019150836020828501011115611c44575f80fd5b5f805f805f8060808789031215611d59575f80fd5b86359550602087013567ffffffffffffffff80821115611d77575f80fd5b611d838a838b01611d06565b90975095506040890135915080821115611d9b575f80fd5b50611da889828a01611d06565b979a9699509497949695606090950135949350505050565b5f60208284031215611dd0575f80fd5b5035919050565b80356001600160a01b0381168114611ded575f80fd5b919050565b5f8060408385031215611e03575f80fd5b82359150611e1360208401611dd7565b90509250929050565b5f81518084525f5b81811015611e4057602081850181015186830182015201611e24565b505f602082860101526020601f19601f83011685010191505092915050565b85815260a060208201525f611e7760a0830187611e1c565b8560408401528281036060840152611e8f8186611e1c565b9150508260808301529695505050505050565b5f8060408385031215611eb3575f80fd5b50508035926020909101359150565b602080825282518282018190525f9190848201906040850190845b81811015611ef957835183529284019291840191600101611edd565b50909695505050505050565b8035600181900b8114611ded575f80fd5b803561ffff81168114611ded575f80fd5b5f805f8060808587031215611f3a575f80fd5b84359350611f4a60208601611f05565b9250611f5860408601611f16565b9150611f6660608601611f16565b905092959194509250565b5f60208284031215611f81575f80fd5b611bfc82611dd7565b86815260c060208201525f611fa260c0830188611e1c565b604083018790526001600160a01b03861660608401528281036080840152611fca8186611e1c565b9150508260a0830152979650505050505050565b808201808211156105a157634e487b7160e01b5f52601160045260245ffd5b634e487b7160e01b5f52603260045260245ffd5b5f60208284031215612021575f80fd5b611bfc82611f16565b5f6020828403121561203a575f80fd5b611bfc82611f05565b634e487b7160e01b5f52604160045260245ffd5b600181811c9082168061206b57607f821691505b60208210810361208957634e487b7160e01b5f52602260045260245ffd5b50919050565b601f821115610d5f575f81815260208120601f850160051c810160208610156120b55750805b601f850160051c820191505b818110156120d4578281556001016120c1565b505050505050565b815167ffffffffffffffff8111156120f6576120f6612043565b61210a816121048454612057565b8461208f565b602080601f83116001811461213d575f84156121265750858301515b5f19600386901b1c1916600185901b1785556120d4565b5f85815260208120601f198616915b8281101561216b5788860151825594840194600190910190840161214c565b508582101561218857878501515f19600388901b60f8161c191681555b5050505050600190811b01905550565b60408152826040820152828460608301375f606084830101525f6060601f19601f860116830101905082602083015294935050505056fea2646970667358221220b4afbcadcb8eace4f071f898e1f96528993d2318445259cd28d983975130c79464736f6c63430008140033","linkReferences":{}},"methodIdentifiers":{"DEFAULT_ADMIN_ROLE()":"a217fddf","DEVICE_ROLE()":"b0e26d70","FARMER_ROLE()":"f3943970","MAX_BATCH_SIZE()":"cfdbf254","RESEARCHER_ROLE()":"50f2aab3","SUBMISSION_COOLDOWN()":"a0ec242a","SUPPLY_CHAIN_ROLE()":"f24cb034","cropEvents(uint256)":"4688f7db","dataHashes(bytes32)":"8ea768fe","farmToCropEvents(uint256,uint256)":"fda7503b","farmToReadings(uint256,uint256)":"faf1fba6","getCropEventsByFarm(uint256)":"a9bf7419","getReadingsByFarm(uint256)":"58cfe812","getRoleAdmin(bytes32)":"248a9ca3","getSupplyChainStages(uint256)":"72067fe9","getTotalCropEvents()":"8e07dd94","getTotalReadings()":"6ed71357","getTotalSupplyChainStages()":"776cce90","grantRole(bytes32,address)":"2f2ff15d","hasRole(bytes32,address)":"91d14854","lastSubmissionTime(address)":"a4365476","pause()":"8456cb59","paused()":"5c975abb","productToStages(uint256,uint256)":"56c70ed6","readings(uint256)":"d5da886d","recordCropEvent(uint256,string,string,bytes32)":"0faa74e5","recordSupplyChainStage(uint256,string,string,bytes32)":"88c36035","renounceRole(bytes32,address)":"36568abe","revokeRole(bytes32,address)":"d547741f","submitBatch(uint256[],int16[],uint16[],uint16[])":"0d8d976c","submitSensorData(uint256,int16,uint16,uint16)":"864b6485","supplyChainStages(uint256)":"f2410ef7","supportsInterface(bytes4)":"01ffc9a7","unpause()":"3f4ba83a","verifyReading(uint256)":"aaf10752"},"id":0}