{
  "_format": "hh3-artifact-1",
  "contractName": "AgriSensorData",
  "sourceName": "contracts/AgriSensorData.sol",
  "abi": [
    {
      "inputs": [],
      "stateMutability": "nonpayable",
      "type": "constructor"
    },
    {
      "inputs": [],
      "name": "AccessControlBadConfirmation",
      "type": "error"
    },
    {
      "inputs": [
        {
          "internalType": "address",
          "name": "account",
          "type": "address"
        },
        {
          "internalType": "bytes32",
          "name": "neededRole",
          "type": "bytes32"
        }
      ],
      "name": "AccessControlUnauthorizedAccount",
      "type": "error"
    },
    {
      "inputs": [],
      "name": "ArrayLengthMismatch",
      "type": "error"
    },
    {
      "inputs": [],
      "name": "DuplicateDataHash",
      "type": "error"
    },
    {
      "inputs": [],
      "name": "EnforcedPause",
      "type": "error"
    },
    {
      "inputs": [],
      "name": "ExpectedPause",
      "type": "error"
    },
    {
      "inputs": [],
      "name": "InvalidSensorData",
      "type": "error"
    },
    {
      "inputs": [],
      "name": "ReadingNotFound",
      "type": "error"
    },
    {
      "inputs": [],
      "name": "UnauthorizedDevice",
      "type": "error"
    },
    {
      "anonymous": false,
      "inputs": [
        {
          "indexed": true,
          "internalType": "uint256",
          "name": "readingId",
          "type": "uint256"
        },
        {
          "indexed": true,
          "internalType": "address",
          "name": "deviceId",
          "type": "address"
        },
        {
          "indexed": false,
          "internalType": "string",
          "name": "anomalyType",
          "type": "string"
        }
      ],
      "name": "AnomalyDetected",
      "type": "event"
    },
    {
      "anonymous": false,
      "inputs": [
        {
          "indexed": true,
          "internalType": "uint256",
          "name": "eventId",
          "type": "uint256"
        },
        {
          "indexed": true,
          "internalType": "uint256",
          "name": "farmId",
          "type": "uint256"
        },
        {
          "indexed": false,
          "internalType": "string",
          "name": "eventType",
          "type": "string"
        },
        {
          "indexed": false,
          "internalType": "uint256",
          "name": "timestamp",
          "type": "uint256"
        }
      ],
      "name": "CropEventRecorded",
      "type": "event"
    },
    {
      "anonymous": false,
      "inputs": [
        {
          "indexed": false,
          "internalType": "address",
          "name": "account",
          "type": "address"
        }
      ],
      "name": "Paused",
      "type": "event"
    },
    {
      "anonymous": false,
      "inputs": [
        {
          "indexed": true,
          "internalType": "bytes32",
          "name": "role",
          "type": "bytes32"
        },
        {
          "indexed": true,
          "internalType": "bytes32",
          "name": "previousAdminRole",
          "type": "bytes32"
        },
        {
          "indexed": true,
          "internalType": "bytes32",
          "name": "newAdminRole",
          "type": "bytes32"
        }
      ],
      "name": "RoleAdminChanged",
      "type": "event"
    },
    {
      "anonymous": false,
      "inputs": [
        {
          "indexed": true,
          "internalType": "bytes32",
          "name": "role",
          "type": "bytes32"
        },
        {
          "indexed": true,
          "internalType": "address",
          "name": "account",
          "type": "address"
        },
        {
          "indexed": true,
          "internalType": "address",
          "name": "sender",
          "type": "address"
        }
      ],
      "name": "RoleGranted",
      "type": "event"
    },
    {
      "anonymous": false,
      "inputs": [
        {
          "indexed": true,
          "internalType": "bytes32",
          "name": "role",
          "type": "bytes32"
        },
        {
          "indexed": true,
          "internalType": "address",
          "name": "account",
          "type": "address"
        },
        {
          "indexed": true,
          "internalType": "address",
          "name": "sender",
          "type": "address"
        }
      ],
      "name": "RoleRevoked",
      "type": "event"
    },
    {
      "anonymous": false,
      "inputs": [
        {
          "indexed": true,
          "internalType": "uint256",
          "name": "readingId",
          "type": "uint256"
        },
        {
          "indexed": true,
          "internalType": "address",
          "name": "deviceId",
          "type": "address"
        },
        {
          "indexed": true,
          "internalType": "uint256",
          "name": "farmId",
          "type": "uint256"
        },
        {
          "indexed": false,
          "internalType": "uint256",
          "name": "timestamp",
          "type": "uint256"
        }
      ],
      "name": "SensorDataSubmitted",
      "type": "event"
    },
    {
      "anonymous": false,
      "inputs": [
        {
          "indexed": true,
          "internalType": "uint256",
          "name": "stageId",
          "type": "uint256"
        },
        {
          "indexed": true,
          "internalType": "uint256",
          "name": "productId",
          "type": "uint256"
        },
        {
          "indexed": false,
          "internalType": "string",
          "name": "stage",
          "type": "string"
        },
        {
          "indexed": false,
          "internalType": "uint256",
          "name": "timestamp",
          "type": "uint256"
        }
      ],
      "name": "SupplyChainStageRecorded",
      "type": "event"
    },
    {
      "anonymous": false,
      "inputs": [
        {
          "indexed": false,
          "internalType": "address",
          "name": "account",
          "type": "address"
        }
      ],
      "name": "Unpaused",
      "type": "event"
    },
    {
      "inputs": [],
      "name": "DEFAULT_ADMIN_ROLE",
      "outputs": [
        {
          "internalType": "bytes32",
          "name": "",
          "type": "bytes32"
        }
      ],
      "stateMutability": "view",
      "type": "function"
    },
    {
      "inputs": [],
      "name": "DEVICE_ROLE",
      "outputs": [
        {
          "internalType": "bytes32",
          "name": "",
          "type": "bytes32"
        }
      ],
      "stateMutability": "view",
      "type": "function"
    },
    {
      "inputs": [],
      "name": "FARMER_ROLE",
      "outputs": [
        {
          "internalType": "bytes32",
          "name": "",
          "type": "bytes32"
        }
      ],
      "stateMutability": "view",
      "type": "function"
    },
    {
      "inputs": [],
      "name": "MAX_BATCH_SIZE",
      "outputs": [
        {
          "internalType": "uint256",
          "name": "",
          "type": "uint256"
        }
      ],
      "stateMutability": "view",
      "type": "function"
    },
    {
      "inputs": [],
      "name": "RESEARCHER_ROLE",
      "outputs": [
        {
          "internalType": "bytes32",
          "name": "",
          "type": "bytes32"
        }
      ],
      "stateMutability": "view",
      "type": "function"
    },
    {
      "inputs": [],
      "name": "SUBMISSION_COOLDOWN",
      "outputs": [
        {
          "internalType": "uint256",
          "name": "",
          "type": "uint256"
        }
      ],
      "stateMutability": "view",
      "type": "function"
    },
    {
      "inputs": [],
      "name": "SUPPLY_CHAIN_ROLE",
      "outputs": [
        {
          "internalType": "bytes32",
          "name": "",
          "type": "bytes32"
        }
      ],
      "stateMutability": "view",
      "type": "function"
    },
    {
      "inputs": [
        {
          "internalType": "uint256",
          "name": "",
          "type": "uint256"
        }
      ],
      "name": "cropEvents",
      "outputs": [
        {
          "internalType": "uint256",
          "name": "farmId",
          "type": "uint256"
        },
        {
          "internalType": "string",
          "name": "eventType",
          "type": "string"
        },
        {
          "internalType": "uint256",
          "name": "timestamp",
          "type": "uint256"
        },
        {
          "internalType": "string",
          "name": "notes",
          "type": "string"
        },
        {
          "internalType": "bytes32",
          "name": "linkedDataHash",
          "type": "bytes32"
        }
      ],
      "stateMutability": "view",
      "type": "function"
    },
    {
      "inputs": [
        {
          "internalType": "bytes32",
          "name": "",
          "type": "bytes32"
        }
      ],
      "name": "dataHashes",
      "outputs": [
        {
          "internalType": "bool",
          "name": "",
          "type": "bool"
        }
      ],
      "stateMutability": "view",
      "type": "function"
    },
    {
      "inputs": [
        {
          "internalType": "uint256",
          "name": "",
          "type": "uint256"
        },
        {
          "internalType": "uint256",
          "name": "",
          "type": "uint256"
        }
      ],
      "name": "farmToCropEvents",
      "outputs": [
        {
          "internalType": "uint256",
          "name": "",
          "type": "uint256"
        }
      ],
      "stateMutability": "view",
      "type": "function"
    },
    {
      "inputs": [
        {
          "internalType": "uint256",
          "name": "",
          "type": "uint256"
        },
        {
          "internalType": "uint256",
          "name": "",
          "type": "uint256"
        }
      ],
      "name": "farmToReadings",
      "outputs": [
        {
          "internalType": "uint256",
          "name": "",
          "type": "uint256"
        }
      ],
      "stateMutability": "view",
      "type": "function"
    },
    {
      "inputs": [
        {
          "internalType": "uint256",
          "name": "farmId",
          "type": "uint256"
        }
      ],
      "name": "getCropEventsByFarm",
      "outputs": [
        {
          "internalType": "uint256[]",
          "name": "",
          "type": "uint256[]"
        }
      ],
      "stateMutability": "view",
      "type": "function"
    },
    {
      "inputs": [
        {
          "internalType": "uint256",
          "name": "farmId",
          "type": "uint256"
        }
      ],
      "name": "getReadingsByFarm",
      "outputs": [
        {
          "internalType": "uint256[]",
          "name": "",
          "type": "uint256[]"
        }
      ],
      "stateMutability": "view",
      "type": "function"
    },
    {
      "inputs": [
        {
          "internalType": "bytes32",
          "name": "role",
          "type": "bytes32"
        }
      ],
      "name": "getRoleAdmin",
      "outputs": [
        {
          "internalType": "bytes32",
          "name": "",
          "type": "bytes32"
        }
      ],
      "stateMutability": "view",
      "type": "function"
    },
    {
      "inputs": [
        {
          "internalType": "uint256",
          "name": "productId",
          "type": "uint256"
        }
      ],
      "name": "getSupplyChainStages",
      "outputs": [
        {
          "internalType": "uint256[]",
          "name": "",
          "type": "uint256[]"
        }
      ],
      "stateMutability": "view",
      "type": "function"
    },
    {
      "inputs": [],
      "name": "getTotalCropEvents",
      "outputs": [
        {
          "internalType": "uint256",
          "name": "",
          "type": "uint256"
        }
      ],
      "stateMutability": "view",
      "type": "function"
    },
    {
      "inputs": [],
      "name": "getTotalReadings",
      "outputs": [
        {
          "internalType": "uint256",
          "name": "",
          "type": "uint256"
        }
      ],
      "stateMutability": "view",
      "type": "function"
    },
    {
      "inputs": [],
      "name": "getTotalSupplyChainStages",
      "outputs": [
        {
          "internalType": "uint256",
          "name": "",
          "type": "uint256"
        }
      ],
      "stateMutability": "view",
      "type": "function"
    },
    {
      "inputs": [
        {
          "internalType": "bytes32",
          "name": "role",
          "type": "bytes32"
        },
        {
          "internalType": "address",
          "name": "account",
          "type": "address"
        }
      ],
      "name": "grantRole",
      "outputs": [],
      "stateMutability": "nonpayable",
      "type": "function"
    },
    {
      "inputs": [
        {
          "internalType": "bytes32",
          "name": "role",
          "type": "bytes32"
        },
        {
          "internalType": "address",
          "name": "account",
          "type": "address"
        }
      ],
      "name": "hasRole",
      "outputs": [
        {
          "internalType": "bool",
          "name": "",
          "type": "bool"
        }
      ],
      "stateMutability": "view",
      "type": "function"
    },
    {
      "inputs": [
        {
          "internalType": "address",
          "name": "",
          "type": "address"
        }
      ],
      "name": "lastSubmissionTime",
      "outputs": [
        {
          "internalType": "uint256",
          "name": "",
          "type": "uint256"
        }
      ],
      "stateMutability": "view",
      "type": "function"
    },
    {
      "inputs": [],
      "name": "pause",
      "outputs": [],
      "stateMutability": "nonpayable",
      "type": "function"
    },
    {
      "inputs": [],
      "name": "paused",
      "outputs": [
        {
          "internalType": "bool",
          "name": "",
          "type": "bool"
        }
      ],
      "stateMutability": "view",
      "type": "function"
    },
    {
      "inputs": [
        {
          "internalType": "uint256",
          "name": "",
          "type": "uint256"
        },
        {
          "internalType": "uint256",
          "name": "",
          "type": "uint256"
        }
      ],
      "name": "productToStages",
      "outputs": [
        {
          "internalType": "uint256",
          "name": "",
          "type": "uint256"
        }
      ],
      "stateMutability": "view",
      "type": "function"
    },
    {
      "inputs": [
        {
          "internalType": "uint256",
          "name": "",
          "type": "uint256"
        }
      ],
      "name": "readings",
      "outputs": [
        {
          "internalType": "uint256",
          "name": "timestamp",
          "type": "uint256"
        },
        {
          "internalType": "address",
          "name": "deviceId",
          "type": "address"
        },
        {
          "internalType": "uint256",
          "name": "farmId",
          "type": "uint256"
        },
        {
          "internalType": "int16",
          "name": "temperature",
          "type": "int16"
        },
        {
          "internalType": "uint16",
          "name": "soilMoisture",
          "type": "uint16"
        },
        {
          "internalType": "uint16",
          "name": "humidity",
          "type": "uint16"
        },
        {
          "internalType": "bytes32",
          "name": "dataHash",
          "type": "bytes32"
        }
      ],
      "stateMutability": "view",
      "type": "function"
    },
    {
      "inputs": [
        {
          "internalType": "uint256",
          "name": "farmId",
          "type": "uint256"
        },
        {
          "internalType": "string",
          "name": "eventType",
          "type": "string"
        },
        {
          "internalType": "string",
          "name": "notes",
          "type": "string"
        },
        {
          "internalType": "bytes32",
          "name": "linkedDataHash",
          "type": "bytes32"
        }
      ],
      "name": "recordCropEvent",
      "outputs": [],
      "stateMutability": "nonpayable",
      "type": "function"
    },
    {
      "inputs": [
        {
          "internalType": "uint256",
          "name": "productId",
          "type": "uint256"
        },
        {
          "internalType": "string",
          "name": "stage",
          "type": "string"
        },
        {
          "internalType": "string",
          "name": "location",
          "type": "string"
        },
        {
          "internalType": "bytes32",
          "name": "linkedDataHash",
          "type": "bytes32"
        }
      ],
      "name": "recordSupplyChainStage",
      "outputs": [],
      "stateMutability": "nonpayable",
      "type": "function"
    },
    {
      "inputs": [
        {
          "internalType": "bytes32",
          "name": "role",
          "type": "bytes32"
        },
        {
          "internalType": "address",
          "name": "callerConfirmation",
          "type": "address"
        }
      ],
      "name": "renounceRole",
      "outputs": [],
      "stateMutability": "nonpayable",
      "type": "function"
    },
    {
      "inputs": [
        {
          "internalType": "bytes32",
          "name": "role",
          "type": "bytes32"
        },
        {
          "internalType": "address",
          "name": "account",
          "type": "address"
        }
      ],
      "name": "revokeRole",
      "outputs": [],
      "stateMutability": "nonpayable",
      "type": "function"
    },
    {
      "inputs": [
        {
          "internalType": "uint256[]",
          "name": "farmIds",
          "type": "uint256[]"
        },
        {
          "internalType": "int16[]",
          "name": "temperatures",
          "type": "int16[]"
        },
        {
          "internalType": "uint16[]",
          "name": "moistures",
          "type": "uint16[]"
        },
        {
          "internalType": "uint16[]",
          "name": "humidities",
          "type": "uint16[]"
        }
      ],
      "name": "submitBatch",
      "outputs": [],
      "stateMutability": "nonpayable",
      "type": "function"
    },
    {
      "inputs": [
        {
          "internalType": "uint256",
          "name": "farmId",
          "type": "uint256"
        },
        {
          "internalType": "int16",
          "name": "temperature",
          "type": "int16"
        },
        {
          "internalType": "uint16",
          "name": "soilMoisture",
          "type": "uint16"
        },
        {
          "internalType": "uint16",
          "name": "humidity",
          "type": "uint16"
        }
      ],
      "name": "submitSensorData",
      "outputs": [],
      "stateMutability": "nonpayable",
      "type": "function"
    },
    {
      "inputs": [
        {
          "internalType": "uint256",
          "name": "",
          "type": "uint256"
        }
      ],
      "name": "supplyChainStages",
      "outputs": [
        {
          "internalType": "uint256",
          "name": "productId",
          "type": "uint256"
        },
        {
          "internalType": "string",
          "name": "stage",
          "type": "string"
        },
        {
          "internalType": "uint256",
          "name": "timestamp",
          "type": "uint256"
        },
        {
          "internalType": "address",
          "name": "recorder",
          "type": "address"
        },
        {
          "internalType": "string",
          "name": "location",
          "type": "string"
        },
        {
          "internalType": "bytes32",
          "name": "linkedDataHash",
          "type": "bytes32"
        }
      ],
      "stateMutability": "view",
      "type": "function"
    },
    {
      "inputs": [
        {
          "internalType": "bytes4",
          "name": "interfaceId",
          "type": "bytes4"
        }
      ],
      "name": "supportsInterface",
      "outputs": [
        {
          "internalType": "bool",
          "name": "",
          "type": "bool"
        }
      ],
      "stateMutability": "view",
      "type": "function"
    },
    {
      "inputs": [],
      "name": "unpause",
      "outputs": [],
      "stateMutability": "nonpayable",
      "type": "function"
    },
    {
      "inputs": [
        {
          "internalType": "uint256",
          "name": "readingId",
          "type": "uint256"
        }
      ],
      "name": "verifyReading",
      "outputs": [
        {
          "internalType": "bool",
          "name": "valid",
          "type": "bool"
        },
        {
          "internalType": "bytes32",
          "name": "storedHash",
          "type": "bytes32"
        }
      ],
      "stateMutability": "view",
      "type": "function"
    }
  ],
  "bytecode": "0x60806040523480156200001157600080fd5b506200001f600033620000da565b506200004c7f48404ec5122cfef2c4b0b727fa211cfb1e815e1b19d5c56f7d3cc0c616120a2833620000da565b50620000797f7c6181838a71a779e445600d4c6ecbe16bacf2b3c5bda69c29fada66d1b645d133620000da565b50620000a67f7765bfe615aab9fb9a16bd4c5c9b353f39dae79ca7da86094b0a74ea8a89e59a33620000da565b50620000d37f9fdd832c63a06cff8edefff7231d8026fd177377608db1841f7c881716ea19bc33620000da565b5062000189565b6000828152602081815260408083206001600160a01b038516845290915281205460ff166200017f576000838152602081815260408083206001600160a01b03861684529091529020805460ff19166001179055620001363390565b6001600160a01b0316826001600160a01b0316847f2f8788117e7eff1d82e926ec794901d17c78024a50270940304540a733656f0d60405160405180910390a450600162000183565b5060005b92915050565b6122a880620001996000396000f3fe608060405234801561001057600080fd5b50600436106102115760003560e01c806388c3603511610125578063b0e26d70116100ad578063f2410ef71161007c578063f2410ef7146104e6578063f24cb0341461050b578063f394397014610532578063faf1fba614610559578063fda7503b1461056c57600080fd5b8063b0e26d701461044a578063cfdbf25414610471578063d547741f14610479578063d5da886d1461048c57600080fd5b8063a0ec242a116100f4578063a0ec242a146103dd578063a217fddf146103e5578063a4365476146103ed578063a9bf74191461040d578063aaf107521461042057600080fd5b806388c360351461038c5780638e07dd941461039f5780638ea768fe146103a757806391d14854146103ca57600080fd5b806350f2aab3116101a85780636ed71357116101775780636ed713571461034e57806372067fe914610356578063776cce90146103695780638456cb5914610371578063864b64851461037957600080fd5b806350f2aab3146102e957806356c70ed61461031057806358cfe812146103235780635c975abb1461034357600080fd5b80632f2ff15d116101e45780632f2ff15d1461029757806336568abe146102aa5780633f4ba83a146102bd5780634688f7db146102c557600080fd5b806301ffc9a7146102165780630d8d976c1461023e5780630faa74e514610253578063248a9ca314610266575b600080fd5b610229610224366004611c37565b61057f565b60405190151581526020015b60405180910390f35b61025161024c366004611cb4565b6105b6565b005b610251610261366004611dba565b610b82565b610289610274366004611e3c565b60009081526020819052604090206001015490565b604051908152602001610235565b6102516102a5366004611e71565b610d1c565b6102516102b8366004611e71565b610d47565b610251610d7f565b6102d86102d3366004611e3c565b610d95565b604051610235959493929190611ee3565b6102897f7765bfe615aab9fb9a16bd4c5c9b353f39dae79ca7da86094b0a74ea8a89e59a81565b61028961031e366004611f27565b610ee7565b610336610331366004611e3c565b610f18565b6040516102359190611f49565b60015460ff16610229565b600254610289565b610336610364366004611e3c565b610f7a565b600454610289565b610251610fda565b610251610387366004611fb1565b610fed565b61025161039a366004611dba565b611362565b600354610289565b6102296103b5366004611e3c565b60056020526000908152604090205460ff1681565b6102296103d8366004611e71565b61151c565b610289603c81565b610289600081565b6102896103fb366004611ffe565b60096020526000908152604090205481565b61033661041b366004611e3c565b611545565b61043361042e366004611e3c565b6115a5565b604080519215158352602083019190915201610235565b6102897f48404ec5122cfef2c4b0b727fa211cfb1e815e1b19d5c56f7d3cc0c616120a2881565b610289606481565b610251610487366004611e71565b61166d565b61049f61049a366004611e3c565b611692565b604080519788526001600160a01b0390961660208801529486019390935260019190910b606085015261ffff90811660808501521660a083015260c082015260e001610235565b6104f96104f4366004611e3c565b6116f9565b60405161023596959493929190612019565b6102897f9fdd832c63a06cff8edefff7231d8026fd177377608db1841f7c881716ea19bc81565b6102897f7c6181838a71a779e445600d4c6ecbe16bacf2b3c5bda69c29fada66d1b645d181565b610289610567366004611f27565b61185f565b61028961057a366004611f27565b61187b565b60006001600160e01b03198216637965db0b60e01b14806105b057506301ffc9a760e01b6001600160e01b03198316145b92915050565b7f48404ec5122cfef2c4b0b727fa211cfb1e815e1b19d5c56f7d3cc0c616120a286105e081611897565b6105e86118a1565b87606481111561063f5760405162461bcd60e51b815260206004820152601a60248201527f42617463682073697a652065786365656473206d6178696d756d00000000000060448201526064015b60405180910390fd5b808714158061064e5750808514155b806106595750808314155b156106775760405163512509d360e11b815260040160405180910390fd5b3360009081526009602052604090205461069390603c9061206e565b4210156106db5760405162461bcd60e51b8152602060048201526016602482015275436f6f6c646f776e20706572696f642061637469766560501b6044820152606401610636565b3360009081526009602052604081204290555b81811015610b75576103e887878381811061070b5761070b61208f565b905060200201602081019061072091906120a5565b61ffff16118061075b57506103e88585838181106107405761074061208f565b905060200201602081019061075591906120a5565b61ffff16115b156107795760405163043e24f760e51b815260040160405180910390fd5b600042338d8d8581811061078f5761078f61208f565b905060200201358c8c868181106107a8576107a861208f565b90506020020160208101906107bd91906120c0565b8b8b878181106107cf576107cf61208f565b90506020020160208101906107e491906120a5565b8a8a888181106107f6576107f661208f565b905060200201602081019061080b91906120a5565b87604051602001610873979695949392919096875260609590951b6bffffffffffffffffffffffff19166020870152603486019390935260f091821b6054860152811b6001600160f01b0319908116605686015291901b166058830152605a820152607a0190565b60408051601f1981840301815291815281516020928301206000818152600590935291205490915060ff16156108bc57604051632ca15f0960e01b815260040160405180910390fd5b600081815260056020908152604091829020805460ff1916600117905560028054835160e08101855242815233938101939093529290919081018f8f878181106109085761090861208f565b9050602002013581526020018d8d878181106109265761092661208f565b905060200201602081019061093b91906120c0565b60010b81526020018b8b878181106109555761095561208f565b905060200201602081019061096a91906120a5565b61ffff1681526020018989878181106109855761098561208f565b905060200201602081019061099a91906120a5565b61ffff90811682526020918201869052835460018181018655600095865283862085516005909302019182559284015192810180546001600160a01b039094166001600160a01b031990941693909317909255604083015160028301556060830151600383018054608086015160a087015185166401000000000265ffff0000000019918616620100000263ffffffff199093169490951693909317179190911691909117905560c0909101516004909101556006908e8e86818110610a6257610a6261208f565b602090810292909201358352508181019290925260400160009081208054600181018255908252919020018190558c8c84818110610aa257610aa261208f565b90506020020135336001600160a01b0316827fd1ffbc628ab31d410540a5216a77617b6437dd8315e6d6eb848dc25b4825e40042604051610ae591815260200190565b60405180910390a4610b6b818c8c86818110610b0357610b0361208f565b9050602002016020810190610b1891906120c0565b8b8b87818110610b2a57610b2a61208f565b9050602002016020810190610b3f91906120a5565b8a8a88818110610b5157610b5161208f565b9050602002016020810190610b6691906120a5565b6118c7565b50506001016106ee565b5050505050505050505050565b7f7c6181838a71a779e445600d4c6ecbe16bacf2b3c5bda69c29fada66d1b645d1610bac81611897565b610bb46118a1565b6000600380549050905060036040518060a001604052808a815260200189898080601f0160208091040260200160405190810160405280939291908181526020018383808284376000920191909152505050908252504260208083019190915260408051601f8a01839004830281018301825289815292019190899089908190840183828082843760009201829052509385525050506020918201879052835460018181018655948252908290208351600590920201908155908201519192909190820190610c839082612179565b506040820151600282015560608201516003820190610ca29082612179565b506080919091015160049091015560008881526007602090815260408083208054600181018255908452919092200182905551889082907fb414845a4cb1995a4700e6ebfd4967cd28d1ab8c31461aa6da72fefc4cd720a690610d0a908b908b904290612239565b60405180910390a35050505050505050565b600082815260208190526040902060010154610d3781611897565b610d418383611a4d565b50505050565b6001600160a01b0381163314610d705760405163334bd91960e11b815260040160405180910390fd5b610d7a8282611adf565b505050565b6000610d8a81611897565b610d92611b4a565b50565b60038181548110610da557600080fd5b60009182526020909120600590910201805460018201805491935090610dca906120f1565b80601f0160208091040260200160405190810160405280929190818152602001828054610df6906120f1565b8015610e435780601f10610e1857610100808354040283529160200191610e43565b820191906000526020600020905b815481529060010190602001808311610e2657829003601f168201915b505050505090806002015490806003018054610e5e906120f1565b80601f0160208091040260200160405190810160405280929190818152602001828054610e8a906120f1565b8015610ed75780601f10610eac57610100808354040283529160200191610ed7565b820191906000526020600020905b815481529060010190602001808311610eba57829003601f168201915b5050505050908060040154905085565b60086020528160005260406000208181548110610f0357600080fd5b90600052602060002001600091509150505481565b600081815260066020908152604091829020805483518184028101840190945280845260609392830182828015610f6e57602002820191906000526020600020905b815481526020019060010190808311610f5a575b50505050509050919050565b600081815260086020908152604091829020805483518184028101840190945280845260609392830182828015610f6e5760200282019190600052602060002090815481526020019060010190808311610f5a5750505050509050919050565b6000610fe581611897565b610d92611b9c565b7f48404ec5122cfef2c4b0b727fa211cfb1e815e1b19d5c56f7d3cc0c616120a2861101781611897565b61101f6118a1565b3360009081526009602052604090205461103b90603c9061206e565b4210156110835760405162461bcd60e51b8152602060048201526016602482015275436f6f6c646f776e20706572696f642061637469766560501b6044820152606401610636565b3360009081526009602052604090204290556103e861ffff841611806110ae57506103e88261ffff16115b156110cc5760405163043e24f760e51b815260040160405180910390fd5b604080514260208201526bffffffffffffffffffffffff193360601b16918101919091526054810186905260f085811b60748301526001600160f01b031985821b811660768401529084901b166078820152600090607a0160408051601f1981840301815291815281516020928301206000818152600590935291205490915060ff161561116d57604051632ca15f0960e01b815260040160405180910390fd5b60016005600083815260200190815260200160002060006101000a81548160ff0219169083151502179055506000600280549050905060026040518060e00160405280428152602001336001600160a01b031681526020018981526020018860010b81526020018761ffff1681526020018661ffff1681526020018481525090806001815401808255809150506001900390600052602060002090600502016000909190919091506000820151816000015560208201518160010160006101000a8154816001600160a01b0302191690836001600160a01b031602179055506040820151816002015560608201518160030160006101000a81548161ffff021916908360010b61ffff16021790555060808201518160030160026101000a81548161ffff021916908361ffff16021790555060a08201518160030160046101000a81548161ffff021916908361ffff16021790555060c0820151816004015550506006600088815260200190815260200160002081908060018154018082558091505060019003906000526020600020016000909190919091505586336001600160a01b0316827fd1ffbc628ab31d410540a5216a77617b6437dd8315e6d6eb848dc25b4825e4004260405161134591815260200190565b60405180910390a4611359818787876118c7565b50505050505050565b7f9fdd832c63a06cff8edefff7231d8026fd177377608db1841f7c881716ea19bc61138c81611897565b6113946118a1565b6000600480549050905060046040518060c001604052808a815260200189898080601f01602080910402602001604051908101604052809392919081815260200183838082843760009201919091525050509082525042602080830191909152336040808401919091528051601f8a018390048302810183019091528881526060909201919089908990819084018382808284376000920182905250938552505050602091820187905283546001818101865594825290829020835160069092020190815590820151919290919082019061146f9082612179565b506040820151600282015560608201516003820180546001600160a01b0319166001600160a01b03909216919091179055608082015160048201906114b49082612179565b5060a0919091015160059091015560008881526008602090815260408083208054600181018255908452919092200182905551889082907f458336fd7c5948d16ae76ce225c87f858bd744b40d82ddc8272ed4eadeca651590610d0a908b908b904290612239565b6000918252602082815260408084206001600160a01b0393909316845291905290205460ff1690565b600081815260076020908152604091829020805483518184028101840190945280845260609392830182828015610f6e5760200282019190600052602060002090815481526020019060010190808311610f5a5750505050509050919050565b600254600090819083106115cc5760405163447875bf60e11b815260040160405180910390fd5b6000600284815481106115e1576115e161208f565b600091825260208083206040805160e0810182526005948502909201805483526001808201546001600160a01b03168486015260028201548484015260038201549081900b606085015261ffff620100008204811660808601526401000000009091041660a08401526004015460c09092018290528185529290915291205460ff169590945092505050565b60008281526020819052604090206001015461168881611897565b610d418383611adf565b600281815481106116a257600080fd5b600091825260209091206005909102018054600180830154600284015460038501546004909501549395506001600160a01b039091169390929181900b9161ffff6201000083048116926401000000009004169087565b6004818154811061170957600080fd5b6000918252602090912060069091020180546001820180549193509061172e906120f1565b80601f016020809104026020016040519081016040528092919081815260200182805461175a906120f1565b80156117a75780601f1061177c576101008083540402835291602001916117a7565b820191906000526020600020905b81548152906001019060200180831161178a57829003601f168201915b5050505060028301546003840154600485018054949592946001600160a01b039092169350906117d6906120f1565b80601f0160208091040260200160405190810160405280929190818152602001828054611802906120f1565b801561184f5780601f106118245761010080835404028352916020019161184f565b820191906000526020600020905b81548152906001019060200180831161183257829003601f168201915b5050505050908060050154905086565b60066020528160005260406000208181548110610f0357600080fd5b60076020528160005260406000208181548110610f0357600080fd5b610d928133611bd7565b60015460ff16156118c55760405163d93c066560e01b815260040160405180910390fd5b565b6063198360010b12806118de57506102588360010b135b1561194c57336001600160a01b0316847f95e8be25ce99d5e12cac2015ee3df3941fe93667bc5bb68c81b82a3f7ee9ed746040516119439060208082526013908201527245585452454d455f54454d504552415455524560681b604082015260600190565b60405180910390a35b60328261ffff16108061196457506103b68261ffff16115b156119d457336001600160a01b0316847f95e8be25ce99d5e12cac2015ee3df3941fe93667bc5bb68c81b82a3f7ee9ed746040516119cb9060208082526015908201527445585452454d455f534f494c5f4d4f49535455524560581b604082015260600190565b60405180910390a35b6103b68161ffff161115610d4157336001600160a01b0316847f95e8be25ce99d5e12cac2015ee3df3941fe93667bc5bb68c81b82a3f7ee9ed74604051611a3f9060208082526010908201526f45585452454d455f48554d494449545960801b604082015260600190565b60405180910390a350505050565b6000611a59838361151c565b611ad7576000838152602081815260408083206001600160a01b03861684529091529020805460ff19166001179055611a8f3390565b6001600160a01b0316826001600160a01b0316847f2f8788117e7eff1d82e926ec794901d17c78024a50270940304540a733656f0d60405160405180910390a45060016105b0565b5060006105b0565b6000611aeb838361151c565b15611ad7576000838152602081815260408083206001600160a01b0386168085529252808320805460ff1916905551339286917ff6391f5c32d9c69d2a47ea670b442974b53935d1edc7fd64eb21e047a839171b9190a45060016105b0565b611b52611c14565b6001805460ff191690557f5db9ee0a495bf2e6ff9c91a7834c1ba4fdd244a5e8aa4e537bd38aeae4b073aa335b6040516001600160a01b03909116815260200160405180910390a1565b611ba46118a1565b6001805460ff1916811790557f62e78cea01bee320cd4e420270b5ea74000d11b0c9f74754ebdbfc544b05a25833611b7f565b611be1828261151c565b611c105760405163e2517d3f60e01b81526001600160a01b038216600482015260248101839052604401610636565b5050565b60015460ff166118c557604051638dfc202b60e01b815260040160405180910390fd5b600060208284031215611c4957600080fd5b81356001600160e01b031981168114611c6157600080fd5b9392505050565b60008083601f840112611c7a57600080fd5b50813567ffffffffffffffff811115611c9257600080fd5b6020830191508360208260051b8501011115611cad57600080fd5b9250929050565b6000806000806000806000806080898b031215611cd057600080fd5b883567ffffffffffffffff80821115611ce857600080fd5b611cf48c838d01611c68565b909a50985060208b0135915080821115611d0d57600080fd5b611d198c838d01611c68565b909850965060408b0135915080821115611d3257600080fd5b611d3e8c838d01611c68565b909650945060608b0135915080821115611d5757600080fd5b50611d648b828c01611c68565b999c989b5096995094979396929594505050565b60008083601f840112611d8a57600080fd5b50813567ffffffffffffffff811115611da257600080fd5b602083019150836020828501011115611cad57600080fd5b60008060008060008060808789031215611dd357600080fd5b86359550602087013567ffffffffffffffff80821115611df257600080fd5b611dfe8a838b01611d78565b90975095506040890135915080821115611e1757600080fd5b50611e2489828a01611d78565b979a9699509497949695606090950135949350505050565b600060208284031215611e4e57600080fd5b5035919050565b80356001600160a01b0381168114611e6c57600080fd5b919050565b60008060408385031215611e8457600080fd5b82359150611e9460208401611e55565b90509250929050565b6000815180845260005b81811015611ec357602081850181015186830182015201611ea7565b506000602082860101526020601f19601f83011685010191505092915050565b85815260a060208201526000611efc60a0830187611e9d565b8560408401528281036060840152611f148186611e9d565b9150508260808301529695505050505050565b60008060408385031215611f3a57600080fd5b50508035926020909101359150565b6020808252825182820181905260009190848201906040850190845b81811015611f8157835183529284019291840191600101611f65565b50909695505050505050565b8035600181900b8114611e6c57600080fd5b803561ffff81168114611e6c57600080fd5b60008060008060808587031215611fc757600080fd5b84359350611fd760208601611f8d565b9250611fe560408601611f9f565b9150611ff360608601611f9f565b905092959194509250565b60006020828403121561201057600080fd5b611c6182611e55565b86815260c06020820152600061203260c0830188611e9d565b604083018790526001600160a01b0386166060840152828103608084015261205a8186611e9d565b9150508260a0830152979650505050505050565b808201808211156105b057634e487b7160e01b600052601160045260246000fd5b634e487b7160e01b600052603260045260246000fd5b6000602082840312156120b757600080fd5b611c6182611f9f565b6000602082840312156120d257600080fd5b611c6182611f8d565b634e487b7160e01b600052604160045260246000fd5b600181811c9082168061210557607f821691505b60208210810361212557634e487b7160e01b600052602260045260246000fd5b50919050565b601f821115610d7a57600081815260208120601f850160051c810160208610156121525750805b601f850160051c820191505b818110156121715782815560010161215e565b505050505050565b815167ffffffffffffffff811115612193576121936120db565b6121a7816121a184546120f1565b8461212b565b602080601f8311600181146121dc57600084156121c45750858301515b600019600386901b1c1916600185901b178555612171565b600085815260208120601f198616915b8281101561220b578886015182559484019460019091019084016121ec565b50858210156122295787850151600019600388901b60f8161c191681555b5050505050600190811b01905550565b604081528260408201528284606083013760006060848301015260006060601f19601f860116830101905082602083015294935050505056fea2646970667358221220fe61101d81c72094ab0225a39060f447277e5f33304d4f45c7577cb2575ba4a864736f6c63430008140033",
  "linkReferences": {},
  "deployedLinkReferences": {},
  "immutableReferences": {},
  "inputSourceName": "project/contracts/AgriSensorData.sol",
  "buildInfoId": "solc-0_8_20-b4e9ef00b6f8c46da30e27a17aec683135e7b6c6"
}